S0110000626F6F74426F6172642E7372656377
S2140200000D94FA000D9412010D9412010D94120132
S2140200100D9412010D9412010D9412010D94120109
S2140200200D9412010D9412010D9412010D941201F9
S2140200300D9412010D9412010D9412010D941201E9
S2140200400D9412010D9412010D9412010D941201D9
S2140200500D9412010D9412010D9412010D941201C9
S2140200600D9412010D94C9020D9412010D94120101
S2140200700D9412010D9412010D9412010D941201A9
S2140200800D9412010D9412010D9412010D94120199
S2140200900D9412010D9412010D9412010D94120189
S2140200A00D9412010D9412010D9412010D94120179
S2140200B00D9412010D9412010D9412010D94120169
S2140200C00D9412010D9412010D9412010D94120159
S2140200D00D9412010D9412010D9412010D94120149
S2140200E00D9412010D9412010D9412010D94120139
S2140200F00D9412010D9412010D9412010D94120129
S2140201000D9412010D9412010D9412010D94120118
S2140201100D9412010D9412010D9412010D94120108
S2140201200D9412010D9412010D9412010D941201F8
S2140201300D9412010D9412010D9412010D941201E8
S2140201400D9412010D9412010D9412010D941201D8
S2140201500D9412010D9412010D9412010D941201C8
S2140201600D9412010D9412010D9412010D941201B8
S2140201700D9412010D9412010D9412010D941201A8
S2140201800D9412010D9412010D9412010D94120198
S2140201900D9412010D9412010D9412010D94120188
S2140201A00D9412010D9412010D9412010D94120178
S2140201B00D9412010D9412010D9412010D94120168
S2140201C00D9412010D9412010D9412010D94120158
S2140201D00D9412010D9412010D9412010D94120148
S2140201E00D9412010D9412010D9412010D94120138
S2140201F00D94120111241FBECFEFCDBFDFE3DEBF89
S21402020001E00CBF18BE19BE1ABE1BBE20E2A0E05B
S214020210B0E201C01D92A130B207E1F70F945E0270
S2140202200D94C6030D9400003BB78BBFFB0186916D
S2140202303BBF08953BB78BBFFB01879196913BBFAF
S214020240089542E081C041E07FC08093C0018827C4
S2140202508093C1018093C20147E066D0CB01089526
S2140202608093C40148E060C08091D00108953BB7F6
S21402027048E10D94DB033BB74AE10D94DB033BB741
S21402028040E20D94DB033BB78BBFCB0142E20D94F9
S214020290DB033BB70B0143E20D94DB033BB76BBFBB
S2140202A0FA0119BEDC0140E04093CA0150E0879192
S2140202B097918D939D935A95D1F73BBF08953BB77F
S2140202C08BBFCB0144E20D94DB033BB78BBFCB0164
S2140202D045E20D94DB033BB746E20D94DB033BB7E6
S2140202E08BBFCB014AE20D94DB033BB78BBFCB013E
S2140202F04CE20D94DB033BB78BBFCB014DE20D9472
S214020300DB0348E311C049E30FC028ED2093340015
S21402031021E02093CC0108952091CF0127FDFCCF48
S21402032022272093CA0108954093CA0128ED31E09E
S214020330209334003093CB016091C4017091C501C3
S2140203408091C60199270895FC014093CA018491C1
S2140203500895EF92FF920F931F93CF93DF93141695
S214020360150694F48B017C01EB01040F151FBE01E8
S214020370C7010F94E901009749F02196C017D107EB
S214020380B1F781E090E002C081E090E0DF91CF918A
S2140203901F910F91FF90EF900895EF92FF920F93A7
S2140203A01F93CF93DF931416150664F48B017C011A
S2140203B0EB01040F151F6991C7010F942302C017A2
S2140203C0D107C9F7DF91CF911F910F91FF90EF9060
S2140203D00895CF93DF9300D000D0CDB7DEB78B83DE
S2140203E09C836D837E8319821A828B819C81FC0199
S2140203F080819181FC0181818095881F8827881FD2
S214020400882371F089819A818433984019F480E0B8
S21402041090E013C089819A81019689839A83E5CFF9
S2140204208B819C81FC0180819181FC0120818D81E0
S2140204309E81FC01208381E090E02696CDBFDEBF40
S214020440DF91CF910895DC01ED91FC91818185FFCA
S214020450FDCF60830895FC01A081B181828115964B
S2140204608C938AE68A95F1F700C0A081B1818281D9
S21402047016968C938FE193E00197F1F700C0000087
S2140204800895DC01ED91FC911197208530E01296DB
S2140204908D919C9113972823392381E0232B09F40D
S2140204A080E00895F8940F948C010F9485011092C1
S2140204B0B3091CBEE0E0F0E019950895CF93DF93F0
S2140204C0CDB7DEB72897CDBFDEBF82E0809350005F
S2140204D0E1E5F0E0808181FFFDCF28ED24BF91E0C9
S2140204E090934000E0EAF0E082818760828324BF36
S2140204F0828180648283E0E2F7E0E983FA8321E086
S21402050030E02B833C83918384E08183ED83FE83FA
S21402051080E290E08F8398871092A70889E0809304
S214020520A60880E28093A30883E08093A50888E16A
S2140205308093A40888E080934106109280049BE989
S214020540909385048093810410928204109283040F
S2140205508DEC80938404ED81FE8180E1858B789416
S214020560CE0101960F942B02CE0105960F944102FE
S214020570CE0105960F944102882321F08091002037
S214020580882371F3E981FA818B8186830F94520264
S214020590E7CF1F920F920FB60F92112408B60F9252
S2140205A018BE09B60F9219BE0AB60F921ABE0BB63D
S2140205B00F921BBE8F929F92AF92BF92CF92DF9204
S2140205C0EF92FF920F931F932F933F934F935F9356
S2140205D06F937F938F939F93AF93BF93EF93FF9304
S2140205E0CF93DF93CDB7DEB7C25CD240CDBFDEBFBE
S2140205F080EA98E089839A83BE016D5F7F4F8CEB19
S21402060092E0FB019C01119221503040E1F78FEFFE
S214020610C154DD4F8883CF5BD24082E0C054DD4FA9
S2140206208883C05CD24084E0CF53DD4F8883C15CB0
S214020630D2408AE0CE53DD4F8883C25CD2404CEB78
S21402064052E0CE0101960F94A9018E81833061F0AB
S2140206508338C1F58984912C3FEF830E911C092CB7
S214020660000CAA08BB0853C08984912C81E0881A22
S2140206709108092C000CAA08BB0849C0F6010081A3
S214020680818110E0182B0F948C01B801C7010F94DA
S2140206904901F2E0EF0EF11C22E0C20ED11CE11479
S2140206A032E0F30659F70F948C01C501B4010F949A
S2140206B0650144E050E0BE0161547D4FCE010196D3
S2140206C00F94CD018E81853561F48F818535A9F52C
S2140206D048E050E0BE016D5F7F4FCE0101960F9459
S2140206E0CD018E81873061F48F81873031F541E00C
S2140206F050E0BE016D5F7F4FCE0101960F94CD0193
S2140207008E818C33D1F481E08093002016C0072EB0
S21402071079E0880C991CAA1CBB1C7A95D1F7702D1F
S2140207208114910482E0A806B10438F46E01EBE06D
S214020730CE0ED11CE12CF12CA1CFCE53DD4FCDBF76
S214020740DEBFDF91CF91FF91EF91BF91AF919F9165
S2140207508F917F916F915F914F913F912F911F9152
S2140207600F91FF90EF90DF90CF90BF90AF909F9049
S2140207708F900F900BBE0F900ABE0F9009BE0F907F
S21402078008BE0F900FBE0F901F901895F894FFCFDB
S214020790EE27FF2719BEDC0143E24093CA0150E070
S2140207A02DE90D901D9020933400E89532965A95C7
S2140207B0C1F711240895FC014093CA012DE9209344
S20E0207C03400E89511243BBF0895AB
S804020000F9
