S010000074657374426F6F742E73726563C0
S2140200000D94FA000D940A010D940A010D940A014A
S2140200100D940A010D940A010D940A010D940A0129
S2140200200D940A010D940A010D940A010D940A0119
S2140200300D940A010D940A010D940A010D940A0109
S2140200400D940A010D940A010D940A010D940A01F9
S2140200500D940A010D940A010D940A010D940A01E9
S2140200600D940A010D94A9010D940A010D940A013A
S2140200700D940A010D940A010D940A010D940A01C9
S2140200800D940A010D940A010D940A010D940A01B9
S2140200900D940A010D940A010D940A010D940A01A9
S2140200A00D940A010D940A010D940A010D940A0199
S2140200B00D940A010D940A010D940A010D940A0189
S2140200C00D940A010D940A010D940A010D940A0179
S2140200D00D940A010D940A010D940A010D940A0169
S2140200E00D940A010D940A010D940A010D940A0159
S2140200F00D940A010D940A010D940A010D940A0149
S2140201000D940A010D940A010D940A010D940A0138
S2140201100D940A010D940A010D940A010D940A0128
S2140201200D940A010D940A010D940A010D940A0118
S2140201300D940A010D940A010D940A010D940A0108
S2140201400D940A010D940A010D940A010D940A01F8
S2140201500D940A010D940A010D940A010D940A01E8
S2140201600D940A010D940A010D940A010D940A01D8
S2140201700D940A010D940A010D940A010D940A01C8
S2140201800D940A010D940A010D940A010D940A01B8
S2140201900D940A010D940A010D940A010D940A01A8
S2140201A00D940A010D940A010D940A010D940A0198
S2140201B00D940A010D940A010D940A010D940A0188
S2140201C00D940A010D940A010D940A010D940A0178
S2140201D00D940A010D940A010D940A010D940A0168
S2140201E00D940A010D940A010D940A010D940A0158
S2140201F00D940A0111241FBECFEFCDBFDFE3DEBF91
S21402020001E00CBF18BE19BE1ABE1BBE0F944601F3
S2140202100D9409020D940000E1EAF8E0808188233B
S214020220ECF78091A0080895E1EAF8E0808185FF66
S214020230FDCF6093A0080895DC01ED91FC91119723
S214020240208530E012968D919C91139728233923AE
S21402025081E0232B09F480E00895E4E8F4E080814D
S21402026086FFFDCF609387040895E4E8F4E080817A
S2140202708823ECF780918704672B21F092E0909315
S2140202808304089597E0909383040895CF93DF93B1
S21402029000D01F92CDB7DEB782E080935000E1E532
S2140202A0F0E0808181FFFDCF28ED24BF81E08093BE
S2140202B04000E0EAF0E092819760928324BF928148
S2140202C090649283E0E2F7E08183E983FA8320E296
S2140202D030E02B833C831092A70898E69093A608FA
S2140202E090E29093A30893E09093A50898E19093E8
S2140202F0A40898E090934106109280042BE920937C
S21402030085049093810410928204109283049DECDB
S214020310909384048583E981FA8180E1858B7894C1
S2140203200F2EF0E2EF2EF7E0FF2EF02D10E001C0C8
S21402033011E0CE0101960F941C018111F9CF111123
S214020340F8CF81E0F70186831CBEE0E0F0E0199565
S214020350EDCF1F920F920FB60F92112408B60F928E
S21402036018BE09B60F9219BE0AB60F921ABE0BB67F
S2140203700F921BBE0F931F932F933F934F935F9340
S2140203806F937F938F939F93AF93BF93EF93FF9356
S214020390CF93DF931F921F92CDB7DEB7CE010196A1
S2140203A00F940C0106E814E08EEEF801808360EDEF
S2140203B0CE0102960F942D018FEEF801808360E045
S2140203C070E0CE0102960F943501682FCE01019699
S2140203D00F9414010F900F90DF91CF91FF91EF9140
S2140203E0BF91AF919F918F917F916F915F914F9146
S2140203F03F912F911F910F910F900BBE0F900ABE47
S2140204000F9009BE0F9008BE0F900FBE0F901F9060
S20A0204101895F894FFCFD8
S804020000F9
