:020000022000DC
:100000000D94FA000D940A010D940A010D940A0151
:100010000D940A010D940A010D940A010D940A0130
:100020000D940A010D940A010D940A010D940A0120
:100030000D940A010D940A010D940A010D940A0110
:100040000D940A010D940A010D940A010D940A0100
:100050000D940A010D940A010D940A010D940A01F0
:100060000D940A010D94A0020D940A010D940A0149
:100070000D940A010D940A010D940A010D940A01D0
:100080000D940A010D940A010D940A010D940A01C0
:100090000D940A010D940A010D940A010D940A01B0
:1000A0000D940A010D940A010D940A010D940A01A0
:1000B0000D940A010D940A010D940A010D940A0190
:1000C0000D940A010D940A010D940A010D940A0180
:1000D0000D940A010D940A010D940A010D940A0170
:1000E0000D940A010D940A010D940A010D940A0160
:1000F0000D940A010D940A010D940A010D940A0150
:100100000D940A010D940A010D940A010D940A013F
:100110000D940A010D940A010D940A010D940A012F
:100120000D940A010D940A010D940A010D940A011F
:100130000D940A010D940A010D940A010D940A010F
:100140000D940A010D940A010D940A010D940A01FF
:100150000D940A010D940A010D940A010D940A01EF
:100160000D940A010D940A010D940A010D940A01DF
:100170000D940A010D940A010D940A010D940A01CF
:100180000D940A010D940A010D940A010D940A01BF
:100190000D940A010D940A010D940A010D940A01AF
:1001A0000D940A010D940A010D940A010D940A019F
:1001B0000D940A010D940A010D940A010D940A018F
:1001C0000D940A010D940A010D940A010D940A017F
:1001D0000D940A010D940A010D940A010D940A016F
:1001E0000D940A010D940A010D940A010D940A015F
:1001F0000D940A0111241FBECFEFCDBFDFE3DEBF98
:1002000001E00CBF18BE19BE1ABE1BBE0F944402FB
:100210000D9491030D94000048ED44BF809340007D
:10022000089548ED44BF41E04093790008953BB7FD
:100230008BBFFB0186913BBF08953BB78BBFFB0192
:10024000879196913BBF089542E081C041E07FC015
:100250008093C00188278093C1018093C20147E049
:1002600066D0CB0108958093C40148E060C08091BE
:10027000D00108953BB748E10D94A6033BB74AE18E
:100280000D94A6033BB740E20D94A6033BB78BBF8A
:10029000CB0142E20D94A6033BB70B0143E20D9460
:1002A000A6033BB76BBFFA0119BEDC0140E04093E7
:1002B000CA0150E0879197918D939D935A95D1F7FC
:1002C0003BBF08953BB78BBFCB0144E20D94A6031F
:1002D0003BB78BBFCB0145E20D94A6033BB746E28B
:1002E0000D94A6033BB78BBFCB014AE20D94A60346
:1002F0003BB78BBFCB014CE20D94A6033BB78BBF42
:10030000CB014DE20D94A60348E311C049E30FC0B1
:1003100028ED2093340021E02093CC010895209112
:10032000CF0127FDFCCF22272093CA0108954093D7
:10033000CA0128ED31E0209334003093CB01609165
:10034000C4017091C5018091C60199270895FC01EF
:100350004093CA0184910895EF92FF920F931F93E7
:10036000CF93DF931416150694F48B017C01EB01F7
:10037000040F151FBE01C7010F94EC01009749F04F
:100380002196C017D107B1F781E090E002C081E06B
:1003900090E0DF91CF911F910F91FF90EF90089522
:1003A000EF92FF920F931F93CF93DF9314161506CE
:1003B00064F48B017C01EB01040F151F6991C701E7
:1003C0000F942602C017D107C9F7DF91CF911F9173
:1003D0000F91FF90EF900895CF93DF9300D000D05E
:1003E000CDB7DEB78B839C836D837E8319821A829F
:1003F0008B819C81FC0180819181FC0181818095B0
:10040000881F8827881F882371F089819A818C3200
:10041000914019F480E090E013C089819A8101969F
:1004200089839A83E5CF8B819C81FC0180819181B6
:10043000FC0120818D819E81FC01208381E090E080
:100440002696CDBFDEBFDF91CF910895DC01ED91FF
:10045000FC91818185FFFDCF60830895DC01ED91E2
:10046000FC911197208530E012968D919C91139705
:100470002823392381E0232B09F480E008951CBE52
:10048000E0E0F0E019950895CF93DF9300D01F923C
:10049000CDB7DEB782E080935000E1E5F0E08081E7
:1004A00081FFFDCF28ED24BF81E080934000E0EA8A
:1004B000F0E092819760928324BF9281906492834E
:1004C000E0E2F7E08183E983FA8320E230E02B83E6
:1004D0003C831092A70899E09093A60890E290932D
:1004E000A30893E09093A50898E19093A40898E05E
:1004F00090934106109280042BE9209385049093F9
:10050000810410928204109283049DEC90938404E1
:100510008583E981FA8180E1858B78940F2EF0E262
:10052000EF2EF7E0FF2EF02D11E0CE0101960F9493
:100530002E028111FACFF70116830F943F02F5CFF7
:100540001F920F920FB60F92112408B60F9218BE89
:1005500009B60F9219BE0AB60F921ABE0BB60F92C9
:100560001BBE8F929F92AF92BF92CF92DF92EF927B
:10057000FF920F931F932F933F934F935F936F932C
:100580007F938F939F93AF93BF93EF93FF93CF93FB
:10059000DF93CDB7DEB7C851D240CDBFDEBF80EA12
:1005A00098E089839A83BE016D5F7F4F82E192E07C
:1005B000FB019C01119221503040E1F78FEFCB5E9F
:1005C000DD4F8883C551D24082E0CA5EDD4F88830B
:1005D000C651D24084E0C95EDD4F8883C751D24006
:1005E0008AE0C85EDD4F8883C851D24042E152E0C4
:1005F000CE0101960F94AC018E818330E9F5898498
:10060000912C31E0831A9108092C000CAA08BB0830
:10061000072E79E0880C991CAA1CBB1C7A95D1F78F
:10062000702D8091CC0180FF46C00F94110143C012
:10063000F6010081818110E0182B0F948F01B80121
:10064000C7010F944C01F2E0EF0EF11C22E0C20E44
:10065000D11CE11432E0F30659F70F948F01C50164
:10066000B4010F94680144E050E0BE016B5E7D4F21
:10067000CE0101960F94D0018E81853561F48F8172
:10068000853531F548E050E0BE016D5F7F4FCE010A
:1006900001960F94D0018E818730D1F48F818730FD
:1006A000B9F441E050E0BE016D5F7F4FCE0101968D
:1006B0000F94D0010DC08114910482E0A806B1040A
:1006C00038F46E01EBE0CE0ED11CE12CF12CB0CF52
:1006D000C85EDD4FCDBFDEBFDF91CF91FF91EF91BF
:1006E000BF91AF919F918F917F916F915F914F914A
:1006F0003F912F911F910F91FF90EF90DF90CF903E
:10070000BF90AF909F908F900F900BBE0F900ABE3E
:100710000F9009BE0F9008BE0F900FBE0F901F9054
:060720001895F894FFCFCC
:10072600EE27FF2719BEDC0143E24093CA0150E0E1
:100736002DE90D901D9020933400E89532965A9538
:10074600C1F711240895FC014093CA012DE92093B5
:0A0756003400E89511243BBF08951C
:0400000320000000D9
:00000001FF
