S010000074657374426F6F742E73726563C0
S2140200000D94FA000D940A010D940A010D940A014A
S2140200100D940A010D940A010D940A010D940A0129
S2140200200D940A010D940A010D940A010D940A0119
S2140200300D940A010D940A010D940A010D940A0109
S2140200400D940A010D940A010D940A010D940A01F9
S2140200500D940A010D940A010D940A010D940A01E9
S2140200600D940A010D940A010D940A010D940A01D9
S2140200700D940A010D940A010D940A010D940A01C9
S2140200800D940A010D940A010D940A010D940A01B9
S2140200900D940A010D940A010D940A010D940A01A9
S2140200A00D940A010D940A010D940A010D940A0199
S2140200B00D940A010D940A010D940A010D940A0189
S2140200C00D940A010D940A010D940A010D940A0179
S2140200D00D940A010D940A010D940A010D940A0169
S2140200E00D940A010D940A010D940A010D940A0159
S2140200F00D940A010D940A010D940A010D940A0149
S2140201000D940A010D940A010D940A010D940A0138
S2140201100D940A010D940A010D940A010D940A0128
S2140201200D940A010D940A010D940A010D940A0118
S2140201300D940A010D940A010D940A010D940A0108
S2140201400D940A010D940A010D940A010D940A01F8
S2140201500D940A010D940A010D940A010D940A01E8
S2140201600D940A010D940A010D940A010D940A01D8
S2140201700D940A010D940A010D940A010D940A01C8
S2140201800D940A010D940A010D940A010D940A01B8
S2140201900D940A010D940A010D940A010D940A01A8
S2140201A00D940A010D940A010D940A010D940A0198
S2140201B00D940A010D940A010D940A010D940A0188
S2140201C00D940A010D940A010D940A010D940A0178
S2140201D00D940A010D940A010D940A010D940A0168
S2140201E00D940A010D940A010D940A010D940A0158
S2140201F00D940A0111241FBECFEFCDBFDFE3DEBF91
S21402020001E00CBF18BE19BE1ABE1BBE0F940C012D
S2140202100D9425010D94000081E080932107109231
S214020220A70888E68093A60880E28093A30883E066
S2140202308093A50888E18093A40888E0809341060D
S2120202401CBEE0E0F0E01995FBCFF894FFCF6D
S804020000F9
